:020000040800F2
:10000000B022002015030008BD1B0008B51B000826
:10001000B91B0008AF1B0008251D000800000000E8
:10002000000000000000000000000000EB1B0008C2
:10003000B31B000800000000E91B0008ED1B0008CE
:100040002F0300082F0300082F0300082F030008C8
:100050002F0300082F0300082F0300082F030008B8
:100060002F0300082F0300082F0300082F030008A8
:100070002F0300082F0300082F0300082F03000898
:100080002F0300082F0300082F0300082F03000888
:100090002F0300082F0300082F0300082F03000878
:1000A0002F0300082F0300082F0300082F03000868
:1000B0002F0300082F0300082F0300082F03000858
:1000C0002F0300082F0300082F0300082F03000848
:1000D0002F0300082F030008551C00082F030008F9
:1000E0002F0300082F0300082F0300082F03000828
:1000F0002F0300082F0300082F0300082F03000818
:100100002F0300082F0300082F0300082F03000807
:100110002F0300082F0300082F0300082F030008F7
:100120002F0300082F0300082F0300082F030008E7
:100130002F0300082F0300082F0300082F030008D7
:100140002F0300082F0300082F0300082F030008C7
:100150002F0300082F0300082F0300082F030008B7
:100160002F0300082F0300082F0300082F030008A7
:100170002F0300082F0300082F03000800000000D1
:100180002F0300082F03000800F002F800F0B2F877
:100190000AA090E8000C82448344AAF10107DA45E2
:1001A00001D100F0A7F8AFF2090EBAE80F0013F082
:1001B000010F18BFFB1A43F001031847DC230000AE
:1001C000FC2300000A444FF0000C10F8013B13F030
:1001D000070408BF10F8014B1D1108BF10F8015BA0
:1001E000641E05D010F8016B641E01F8016BF9D193
:1001F00013F0080F1EBF10F8014BAD1C0C1B09D1EA
:100200006D1E58BF01F801CBFAD505E014F8016B5B
:1002100001F8016B6D1EF9D59142D6D370470000ED
:100220000023002400250026103A28BF78C1FBD8FF
:10023000520728BF30C148BF0B6070476E2900F0DD
:10024000EC82702900F06381662902F02281652921
:1002500002F01F81672902F01C81612902F01B81D5
:1002600003681B0A28BF41F08001692900F0D4808F
:10027000642900F0D180752900F0CE806F2900F04C
:10028000DF85782900F02F81E92900F07985E429BC
:1002900000F07685F52900F07385EF2900F0DC8504
:1002A000F82900F02E810368DB0928BF41F08001A6
:1002B000632900F0FA84732900F0FF84E32900F039
:1002C000EB87F32900F0F087002070471FB502F09C
:1002D000DBF800F0CFFD04000020002102F0A8F8B8
:1002E000401C60600020002102F0B8F8E0601FBDF3
:1002F00010B510BD01F06BF81146FFF7E7FF01F0F4
:10030000D1FE01F089F803B4FFF7F2FF03BC01F05E
:100310008DF800000948804709480047FEE7FEE7DE
:10032000FEE7FEE7FEE7FEE7FEE7FEE7FEE7FEE7A5
:1003300004480549054A064B70470000F51B0008B4
:1003400089010008B00E0020B0220020B01E00205D
:10035000B01E00201CB50C46064B7B44694600903D
:10036000204600F080FC04460020694600F08EFC28
:1003700020461CBD2F09000070B504468569006841
:10038000C10601D5302600E02026C00707D070BD89
:10039000D4E9012130469047206A401C20626D1E3E
:1003A000F6D570BD70B5044685690078C00707D1E1
:1003B00070BDD4E9012120209047206A401C2062B2
:1003C0006D1EF6D570BD70B50C460546012A05D0E8
:1003D0002878800600D5EA69002302E0012305E0C1
:1003E0005B1C934202D2E05C0028F9D1A869E618B0
:1003F000C01AA861286A184428622846FFF7BCFF83
:1004000004E0D5E9012114F8010B9047B442F8D378
:100410002846FFF7C7FF70BD2DE9F04106460024CE
:1004200010687529314616A510D000F08BF9002808
:1004300002DA404213A507E031688A0701D512A508
:1004400002E0490704D511A5012401E000F083F979
:1004500000210A2206F1240709E0B0FBF2FCB0FB00
:10046000F2F302FB1C00303078541846491C002877
:10047000F3D123462A463046BDE8F04100F074B976
:10048000000000002D0000002B00000020000000F4
:10049000F0B40D460188090502D5214C7C4402E0E8
:1004A0001F4C7C440E34002100F1240608E002F0C9
:1004B0000F071209E75D42EA03721B097754491CD2
:1004C00052EA0307F3D102780023120704D5702DF6
:1004D00006D009B1022311342246F0BC00F044B921
:1004E00001231034F8E770B504460D462146106824
:1004F00000F031F9024629462046BDE8704000234D
:10050000C6E7D21D22F00703D3E90023C0E7036842
:10051000126843F0200303600823C3610023B7E798
:10052000FA1F00002DE9F05F894604464FF0000AEB
:10053000DFF874B1FB44C0F820A02046E16888478A
:10054000002874D0252806D0D4E901219047206ADC
:10055000401C2062F1E700265F462046E16888479C
:100560002028054607DB312D05D2781910F8200C1C
:1005700008B10643F1E7B00701D526F00406C4F838
:100580001CA00027C4F818A02A2D09D0284601F085
:10059000E3FB38B304EB8708303DC8F8185019E086
:1005A00059F8041B204604EB87029161E1688847F3
:1005B000012F054618D1E069002820DA26F0200630
:1005C0001DE0D8F8180000EB800005EB4000303843
:1005D000C8F818002046E1688847054601F0BCFBD2
:1005E0000028EED1012F0AD02E2D08D12046E16837
:1005F00088477F1C0546022F46F02006C4DBA06911
:10060000002803DA404246F00106A061F00701D05D
:1006100026F010066C2D0BD0682D09D04C2D39D04A
:100620006A2D35D0742D35D07A2D33D016E038E0D0
:10063000E1682F4620468847B842054609D16C2F0D
:1006400026D04FF48060E16806432046884705467F
:1006500004E06C2F1AD04FF4807006430DB3A5F15F
:100660004100192802D8203546F400664A4629463A
:10067000204626604E46FFF7E1FD80B101280BD0F1
:10068000F61D26F0070000F1080956E74020E4E7D0
:100690008020D8E70020D6E706F104094DE7284678
:1006A00052E7206ABDE8F09F8A1F00004FF0013C2E
:1006B00050F8042B51F8043B9A4221D1A2EB0C03D1
:1006C000934313EACC1317D150F8042B51F8043B91
:1006D0009A4215D1A2EB0C03934313EACC130BD12E
:1006E00050F8042B51F8043B9A4209D1A2EB0C03B9
:1006F000934313EACC13DBD04FF00000704700BFE8
:10070000D01A01BAB1FA81F101F0180122FA01F010
:10071000CB40C1F12001DBB2C0B2C01A2CFA01F308
:10072000D11A914311EAC311E6D17047704770475F
:100730007047000010B500F09DFB001D10BD00BF0C
:10074000F11C000009684A0501D540B27047C9058F
:10075000FCD500B2704709684A0501D5C0B27047A0
:10076000C905FCD580B270472DE9F0470D46994682
:100770009246044600F124080168880604D5E06921
:1007800021F01001216000E00120A84201DD471B9B
:1007900000E00027A1697A1902EB0900081AA0619C
:1007A0002078C00602D42046FFF7E6FD002608E0C8
:1007B000D4E901211AF806009047206A401C761CF3
:1007C00020624E45F4DB2078C0060AD52046FFF7AC
:1007D000D3FD06E0D4E9012130209047206A401C77
:1007E0002062381EA7F10107F4DC07E0D4E90121FB
:1007F00018F805009047206A401C2062281EA5F1C9
:100800000105F3DC2046FFF7CDFD2078000602D578
:100810000220BDE8F0870120FBE711680268006A4A
:10082000530501D508700AE0D30501D5088006E01C
:10083000130603D5C217C1E9000200E008600120D9
:10084000704770472DE9FF4F0C461E464FF0FF37AB
:100850008BB0D2E90001DDF860800A908A46C1F3CE
:100860000A5505B93D46002108464FF00000BAF18F
:10087000000F00F4400005DA00EB80004FF4400167
:1008800001EA50004FEA9059B9F1010F00DDB94675
:100890000A9850EA4A000ED044F61050A5F2FF35EF
:1008A00045432F14B8F1000F1ED07542291E1EDDDE
:1008B000C9F100021CE0B8F1010F4FF0000001D0B7
:1008C000302103E0F24305E02154401CB042FBDB41
:1008D00030460022002121540B99C1F80880C1E95B
:1008E00000200FB0BDE8F08FBD1B6D1CDEE74A464F
:1008F00000DA694206A800F0DBFC06AB93E80700CB
:1009000003AB83E8070050460A9900F095FD8DE897
:100910000700A0F500501F3800900398002D09DD56
:1009200042F21F014A46084403A90390684600F0BA
:10093000F4FF08E0A0F500504A461F3803A90390D1
:10094000684600F0FEFF8DE807000004000C03D0AD
:100950004FF0FF30410800E01046B8F1000F03D01F
:100960000022009215461EE0751E05D400F086FA9E
:10097000303262556D1EF9D5B3460122084302D0CC
:1009800000227F1C04E02078302801D100227F1E45
:10099000002A099786D01DE0112D07DA00F06EFAC3
:1009A000303262556D1C50EA0102F5D1084302D085
:1009B0000098C8B10EE00021681E05E0235C625C6F
:1009C00063542254401E491C8142F7DBAB46A81BEE
:1009D000401E0990002004F80B000B98099AC0F8FB
:1009E0000880C0E9002B7CE711264FF0000859E78A
:1009F0002DE9F04F88460446D21D22F0070191B040
:100A0000D1E90001CDE90A0101F08EF902460B9807
:100A1000C00F01D02D2007E02068810701D52B20D1
:100A200002E0202101EAC000032A099001D0072A30
:100A300005DB03464146204600F0E4FB0BE120784D
:100A4000800601D5E06900E00620B8F1650F814617
:100A500006D0B8F1660F18D0B8F1670F70D131E049
:100A60000020B9F1110F009001DB112301E009F121
:100A700001030AAA01A90CA8FFF7E4FEDDE90C7046
:100A8000002609F10105834647E001204B4600900E
:100A90004FF000470AAA01A90CA8FFF7D3FEDDE931
:100AA0000DB00C995D46002610B909F101000D1832
:100AB000B9EB050003D4C0F1FF3609F10105A5EB40
:100AC00009002BE0B9F1010F01DA4FF00109002014
:100AD000B9F1110F0090484601DD112300E00346F3
:100AE0000AAA01A90CA8FFF7ADFEDDE90C704D467E
:100AF00000268346207800070AD4AB4500DA5D461D
:100B000001A8012D04DD411911F8011C302907D07D
:100B10004F4502DA17F1040F04DA012082460FE094
:100B20006D1EEEE7002F02DCED1B3E4403E0781C57
:100B3000A84200DD7D1CB81B00F1010A4FF0004700
:100B40002078000703D4AA4501DB4FF0FF3A0021CB
:100B5000B7F1004F0DF143088DF8431024D0022067
:100B60002B23002F01DA7F422D230A21021EA0F140
:100B7000010000DC5FB197FBF1FC97FBF1F201FB98
:100B80001C7C17460CF1300C08F801CDEEE7A8F1FB
:100B9000010003702188090501D5452100E0652188
:100BA000A0F1010800F8011C09980FA9A1EB0807A2
:100BB000FF1D00B10120411901EBEA70A169384421
:100BC000081A401EA0612078C00602D42046FFF714
:100BD000D3FB099828B1D4E901219047206A401C31
:100BE00020622078C00622D52046FFF7C5FB1EE014
:100BF000002E04DBB34502DD01A8805D00E030205B
:100C0000D4E901219047206A401C2062761CAAF199
:100C100001005FEA000A0AD100F02CF9C0680168FF
:100C2000405CD4E901219047206A401C2062281EC4
:100C3000A5F10105DCDC07E0D4E9012118F8010B7E
:100C40009047206A401C2062381EA7F10107F3DCA0
:100C50002046FFF7A7FB032011B043E601694A1CB9
:100C600002610878704700B58FB0CDE901310021ED
:100C7000059105497944CDE9031011466846FFF70F
:100C800051FC0FB000BD0000E5FFFFFF0A6802F84D
:100C9000010B0A60704710B5436913B1AFF30080D0
:100CA00001E0FFF790FB012010BD127800F1240154
:100CB0000A7000224A700122EDE711684FF0FF32FE
:100CC000E9E700002DE9FF5F15468A460446DFF894
:100CD000AC80F8440027D8E900103E46CDE900106A
:100CE00010E03AF816106A4602A800F04FFB411CCB
:100CF00007D02178890603D5E269391891420DD8C9
:100D00000744761C2078800602D5E069B84205DDEC
:100D1000AE42E6DB3AF816000028E2D1A069C01B1B
:100D2000A0612046FFF728FBD8E90010CDE90010AC
:100D3000002017E03AF818106A4602A800F026FBD7
:100D4000B0F1FF3F81460BD000250DF1080B05E007
:100D5000D4E901211BF8050090476D1C4D45F7D3E0
:100D600008F10100B0428046E4DB206A384420628A
:100D70002046FFF717FBBDE8FF9F0000FE170000AD
:100D80002DE9F0418046D21D22F007020025D2E96C
:100D90000002F52915A614D0011E72F1000106DA31
:100DA0000023D0EB030063EB020211A608E0D8F8A1
:100DB00000108B0701D50FA602E0490701D50EA64A
:100DC00001251146002408F1240704E000F056F83C
:100DD00030323A55641C50EA0102F7D12B463246B4
:100DE00021464046BDE8F041FFF7BEBC00000000D0
:100DF0002D0000002B0000002000000030B4002176
:100E000000F1240408E002F00705D208303542EA78
:100E10004372DB086554491C52EA0305F3D10468A8
:100E2000002310A2250708D504F020040C4304D0A9
:100E3000C46901230CA2641EC46130BCFFF794BCDA
:100E400010B5044621461068FFF785FC024620468F
:100E5000BDE810400023D1E7D21D22F00701D1E9FF
:100E60000023CBE70000000030000000004870477E
:100E7000500E002000487047700E002030B5B0F1D1
:100E80000A024FEA900E71F100034EEA817EB0EB48
:100E90000E0061EB91014FEA101E4EEA017E10EB4D
:100EA0000E0041EB11114FEA102E4EEA016E10EBCD
:100EB0000E0041EB11214FEA104E4EEA014E10EBAD
:100EC0000E0041EB1141401841F100014FEAD00002
:100ED00040EA41704FEAD10110EB80054FEA8104EE
:100EE00044EA907444EB01046D1944EB0404521B72
:100EF000A3414FF0000348BF0A3200D530BD401C6B
:100F000041F1000130BD00002DE9F04F04460D46CF
:100F1000D21D22F0070089B0D0E90092484617465A
:100F2000394600F001FF0246F80F01D02D2307E0FB
:100F30002068810701D52B2302E0202101EAC003AC
:100F40008DF820300BB1012000E00020032A8246FA
:100F500001D0072A04DB2946204600F053F93DE181
:100F60002078800601D40D2500E0E569C7F30A5614
:100F70000D2D49DA00214FEA175B08464FF00000BB
:100F8000002F00F4400007DA00EB80004FF440012E
:100F900000EBD07001EA60008115012901DD4FF0FE
:100FA000FF3100224FEA850CBCF1180F06D313461F
:100FB000ACF118004FF08052C24003E04FF48013B0
:100FC00023FA0CF30CF10C0CBCF1200F04D3ACF1A0
:100FD000200C09FA0CF001E007FA0CF000294FF0A0
:100FE000004801DD18B90FE00ED140450CD319EBD4
:100FF00002095F4121B9404502D19F4329EA020914
:10100000BBEB175F00D0761C2088000502D57B481B
:10101000784402E079487844193808AA302302F865
:101020000A30037C0AF10101002E0AF1020A53542E
:101030006A4602DC4FF0300101E04FF031014FF021
:1010400001088DF8001002D0A6F2FF3603E059EA3D
:10105000470100D06A4E002D02DC2178090704D533
:101060004FF002082E218DF80110C44600210BE03C
:10107000C7F303433F01C35C491C6D1E02F80830EF
:10108000052908F1010801DA002DF1DC00210CE04E
:1010900000EB1973491C1B786D1E082902F80830F3
:1010A0004FEA091908F1010801DA002DF0DC217876
:1010B000890602D514E0A8F10108E04505DD02EB40
:1010C000080111F8011C3029F5D0B8F1000F07DD37
:1010D00002EB080111F8011C2E2901D1A8F1010829
:1010E000002D05DD3E2102F808106D1E08F10108F3
:1010F000407C002E02F8080008F1010804DA2D20D7
:10110000764202F8080002E02B2002F808000A21CB
:101110004FF47A70864208F101080BDB96FBF0F37E
:10112000303302F8083096FBF0F308F1010800FBB9
:10113000136601E0642E0CDB642096FBF0F3303381
:1011400002F8083096FBF0F308F1010800FB136683
:1011500001E00A2E06DB96FBF1F0303002F80800C1
:1011600008F1010896FBF1F001FB1060303002F845
:101170000800A16908F1010808EB050202EB0A006A
:10118000081AA0612078C00602D42046FFF7F4F8C0
:10119000216A08AE01EB0A00206204E0D4E90121D3
:1011A00016F8010B9047BAF1010AF7D22078C00671
:1011B00002D52046FFF7E0F86E4609E016F8010B6D
:1011C0003E280FD0D4E901219047206A401C2062BC
:1011D000B8F10108F2D22046FFF7E4F809B0032085
:1011E000BDE8F08F206A2844206203E0D4E90121A1
:1011F000302090476D1EEBD3F8E70000DB140000B1
:1012000002FCFFFF2DE9F0411F460446032601685A
:10121000072A01F4006004DB08B116A505E016A555
:1012200003E008B115A500E015A521F0100020602D
:10123000A069C01EA0610FB1401EA0612046FFF74B
:101240009BF84FB1D4E9012138469047206A401CF1
:101250002062C01C206206E0206AFAE7D4E901217E
:1012600015F8010B9047761EF8D22046FFF79AF842
:10127000BDE8F0814E414E006E616E00494E460061
:10128000696E660010B5436913B1AFF3008001E0E9
:10129000FFF718FD012010BD128800F1240182849F
:1012A0000022C2840122EDE711684FF0FF32E9E726
:1012B0002DE9F047814616468AB0334878440DC878
:1012C0008DE80D0030487844801C03AC0DC884E8DC
:1012D0000D0041F69B300844372190FBF1F290FB62
:1012E000F1F5A5F1800501FB12041B3C02D5644217
:1012F000012000E00020DFF890A080460027FA449B
:10130000AAF1BE0A0DE0E00709D03246684607EBB5
:1013100047010AEB810100F014FB8DE8070064101F
:101320007F1C002CEFD1184F7F44AC3F18E0E8073A
:1013300014D007EB04100DF1180A90E80E008AE8AB
:101340000E00C068F04201D198190890324606A9F3
:1013500003A800F0F6FA03AB83E807006D10641CE5
:10136000002DE4D132466946B8F1000F03A802D03F
:1013700000F0D3FA01E000F0E4FAC9E90001C9F88D
:1013800008200AB0BDE8F087C012000070B516460C
:101390000C460546FFF7CEF9036893F801010128D2
:1013A00006D0FF2C0FD8185D68B101202C7070BDDD
:1013B000D3F807013246214603F2071303442846B7
:1013C000BDE8704018474FF0FF3070BD704775465C
:1013D000FFF74CFDAE4605006946534620F0070076
:1013E000854618B020B5FEF7A3FFBDE820404FF0BA
:1013F00000064FF000074FF000084FF0000B21F0FF
:101400000701AC46ACE8C009ACE8C009ACE8C009CB
:10141000ACE8C0098D46704710B50446AFF30080B4
:101420002046BDE81040FEF76EBF000001491820BD
:10143000ABBEFEE7260002005FEA400C08BF91F059
:10144000000F4FEA8C234FEAC12243EA51514FEA81
:101450001C5018BF00F5F0404FEA300018BF41F0B3
:1014600000415FEA6C5C00F02980BCF1FF3F08BFDF
:1014700040F080407047130C06BF12044FF0100C70
:101480004FF0000C130E04BF12020CF1080C130FE6
:1014900004BF12010CF1040C930F04BF92000CF175
:1014A000020CD30F04BF52000CF1010C11464FF097
:1014B0000002A0F11F00A0EB0C00704711F0004FDC
:1014C00008BF704731F000413FF4D5AF0B0C06BFA9
:1014D00009044FF0100C4FF0000C0B0E04BF090272
:1014E0000CF1080C0B0F04BF09010CF1040C8B0F5D
:1014F00004BF89000CF1020CCB0F04BF49000CF1B2
:10150000010CCCF12003A0EB0C0022FA03F302FA49
:101510000CF241EA030100F10100704720F07F4C1A
:1015200080EA030023F07F47ACEB070303F57C530D
:1015300000F0004003F1FF032DE980494FEA154B0D
:1015400009B44FEA144325EA0B4E24EA03480FF28C
:10155000042606EB132749083E785FEA320203FBB4
:101560000667C7F5000707FB06F64FEA54374FEA50
:10157000D64606F1020607FB066CCCF1005C4FEA8A
:101580001C472CEA074C07FB06F40CFB06F504EBA2
:1015900015464FEA961634BF00204FF000404FEA40
:1015A000D13706FB07FC4FEA1C4C0CFB0BF7D21B98
:1015B00003FB0CF761EB07010CFB0EF7B0EB0740E8
:1015C00072EB17420CFB08F734BFA2EB0742B2EBF9
:1015D000074261EB17414FEA0C444FEA910706FBC3
:1015E00007FC4FEA1C4C0CFB0BF7B0EBC74072EB4F
:1015F000573203FB0CF734BFA2EBC742B2EBC74232
:1016000061EB57310CFB0EF7B0EBC70072EB577272
:101610000CFB08F734BFA2EBC702B2EBC70261EBC9
:101620005771039F4FEA816141EA921104EBCC04A8
:101630004FEAD1374FEA826206FB07FC42EA90127A
:101640004FEA80604FEA1C4C0CFB0BF7D21B03FBEC
:101650000CF761EB07010CFB0EF7B0EB074072EBE8
:1016600017420CFB08F734BFA2EB0742B2EB07426C
:1016700061EB17414FEA8C554FEA910704EB9C242C
:1016800006FB07FC4FEA1C4C0CFB0BF7B0EBC7400A
:1016900072EB573203FB0CF734BFA2EBC742B2EB3D
:1016A000C74261EB57310CFB0EF7B0EBC70072EB92
:1016B00057720CFB08F734BFA2EBC702B2EBC702AC
:1016C00061EB577115EB4C254FEA816141EA9211AC
:1016D0004FEA82624FEAD13742EA901206FB07FCDA
:1016E00044F100044FEA80604FEA1C4C0CFB0BF7FE
:1016F000D21B03FB0CF761EB07010CFB0EF7B0EB01
:10170000074072EB17420CFB08F734BFA2EB07420D
:10171000B2EB074261EB174115EB1C154FEA813123
:1017200041EA92414FEA823242EA90424FEA8030E7
:101730004FEA0C7644F1000448EA03434EEA0B48B2
:101740004FF0000EB2EB080C71EB030724BF6246AA
:1017500039464EEB0E0E4FF0000B00185241494136
:101760004BEB0B0BB2EB080C71EB03077BF1000B9F
:1017700024BF624639464EEB0E0E4FF0000B0018A8
:10178000524149414BEB0B0BB2EB080C71EB0307D9
:101790007BF1000B24BF624639464EEB0E0E51EA38
:1017A000020718BF46F0010616EB0E7655F100024F
:1017B00054F1000103D5BDE88901BDE80088BDE80A
:1017C0008901BDE80048B619524141EB0101A3F17E
:1017D0000103704780807F7E7D7C7B7A7978777685
:1017E00076757473727171706F6E6E6D6C6C6B6AFE
:1017F0006A6968686766666564646363626161609C
:10180000605F5F5E5E5D5D5C5C5B5B5A5A59595818
:101810005857575656555555545453535252525182
:10182000515050504F4F4F4E4E4D4D4D4C4C4C4BD8
:101830004B4B4A4A4A49494948484847474747461F
:10184000464645454544444444434343434242425B
:1018500042414141002B26D4770021D01CB54FEAEC
:10186000370703B44FF010004FF010014FF00000A5
:101870000FBCBDE810400BF1010BBBF1010F08BF1D
:101880005FEA170722BF12F1010211F101014FF0C7
:10189000004143F1000300F0004043EA00007047BC
:1018A000F9D35708DAE746EA064613F1400F4FEA44
:1018B00016461FDD13F1200FDFBF16430A46002135
:1018C00020335B42C8D0C3F1200746EA064602FA3D
:1018D00007F74FEA164646EA0706C3F1200722FA41
:1018E00003F201FA07F721FA03F14FF0000342EA8D
:1018F0000702B1E746EA020646EA06464FEA1646FE
:1019000046EA0106BCBF46EA0646360C4FF0000325
:101910004FF000024FF000019EE72DE9C0489346CA
:1019200030B491E8380007C831EA400C48BF34EAC7
:10193000430C03D5FFF7F2FDFFF78CFFF0BCBDE8C9
:1019400000882DE9C048934630B491E8380007C8B4
:1019500010F0804F08BF13F0804F03D100F005F85E
:10196000FFF778FFF0BCBDE8008820F07F4780EAF1
:10197000030023F07F4C07EB0C03A3F57C5300F02E
:101980000040A3F1FE0392F0000F00F0B38095F049
:10199000000F00F077802DE901494FEA11404FEA2E
:1019A000144621EA004800FB06FC24EA064708FB2F
:1019B00006F607FB08F800FB07F718EB06484CEBA8
:1019C000164C4FEA124B18EB07484FEA15464CEB02
:1019D000174022EA0B4E0BFB06FC25EA06470EFBDE
:1019E00006F607FB0EFE0BFB07F71EEB064E4CEB55
:1019F000164C4FF000061EEB074E4CEB174B18EB46
:101A00000B0840F1000018EB0E0B58EB000840F1FA
:101A100000008F1A4FF000013CBFC943661B14BF82
:101A2000B5EB040C00213CBFC943F61B4FEA174439
:101A30004EEA8E0E27EA04454FEA1C4704FB076274
:101A40002CEA074C05FB07F70CFB05F604FB0CFC26
:101A500016EB074642EB174216EB0C4642EB1C42D4
:101A60001BEB060658EB0202414146EA9E0601D5F1
:101A7000BDE80189B619524141EB0101A3F101030F
:101A8000BDE801894FEA14454FEA114724EA0546AB
:101A900021EA074C05FB07F406FB07F70CFB06F1F0
:101AA00005FB0CFC11EB074144EB17444FEA1247CE
:101AB00011EB0C4144EB1C4422EA074C05FB07F2F6
:101AC00006FB07F70CFB06F605FB0CFC16EB0746BE
:101AD00042EB174216EB0C4642EB1C456A1854F1D8
:101AE000000148BF7047B619524141EB0101A3F113
:101AF0000103704795F0000F37D04FEA11424FEACB
:101B0000144721EA024624EA074C02FB07F106FBD0
:101B100007F70CFB06F402FB0CFC14EB074441EB4B
:101B200017414FEA154714EB0C4441EB1C4125EAE1
:101B3000074C02FB07F506FB07F70CFB06F602FB5A
:101B40000CFC16EB074645EB174516EB0C4645EB30
:101B50001C42121951F1000148BF7047B619524199
:101B600041EB0101A3F1010370474FEA14454FEA2D
:101B7000114724EA054621EA074C05FB07F106FB5D
:101B800007F70CFB06F24FF0000605FB0CFC12EB0E
:101B9000074241EB174112EB0C4251EB1C4148BF8D
:101BA0007047921841EB0101A3F10103704700BF98
:101BB000FEE7704700BFFEE700BFFEE7704700008A
:101BC00010B5002807DA0A07140E054A00F00F03C3
:101BD0001B1FD45403E00A07130E024A135410BD0E
:101BE00018ED00E000E400E07047704710B500F029
:101BF000C5F810BD10B51348006840F470001149D5
:101C000008601148006840F001000F49086000209A
:101C10000D49083108600C4800680C4908400A4921
:101C200008600B48091D0860081F006820F4802028
:101C3000091F0860002004490C31086000F070FBA7
:101C400010BD000088ED00E000380240FFFFF6FE06
:101C50001030002410B5002440F20531124800F085
:101C6000D8FBF8B100BF06E00F4800F0ADFB0F490C
:101C70000855601CC4B20D2CF6DB002406E00B48AE
:101C8000015D0BA000F01AF8601CC4B20D2CF6DB4D
:101C90000648C17A07A000F011F840F20531024869
:101CA00000F0AAFB10BD000000440040500A0020D4
:101CB0002563000025630D0A000000000FB438B54D
:101CC00005A800900D48009A0499FEF743FB0020F8
:101CD0000090002404E00949085D00F013F8641C3A
:101CE0000648005D0028F6D100BF0621044800F038
:101CF00074FB0028F9D038BC5DF814FB4C010020BF
:101D00000010014010B504462146054800F061FB73
:101D100000BF0721024800F060FB0028F9D010BD89
:101D20000010014000BFFEE703B401984100009895
:101D300050EAC12018BF04204A0D18BF40F001002E
:101D400040F2FF72B2EB515F08BF40F00200012881
:101D500008BF052002B0704730380A2801D20120A0
:101D600070470020704700000349086000BF024927
:101D700009680029FBD17047000000200448006872
:101D800020B103480068401E014908607047000008
:101D90000000002010B5002000F092F8012000F0B3
:101DA0008FF8022000F08CF8032000F089F804205E
:101DB00000F086F8052000F083F8062000F080F897
:101DC000072000F07DF810BD10B52C4B1B68834335
:101DD0002A4C2360231D1B688343241D2360231D7D
:101DE0001B688343241D2360231D1B688343241D1C
:101DF000236011B101290ED105E0204B1B6803437C
:101E00001E4C236008E01D4B1B1D1B6803431B4C2D
:101E1000241D236000E000BF00BF22B1012A0FD0C3
:101E2000022A27D119E0154B08331B680343134CD2
:101E300008342360231D1B688343241D23601AE09C
:101E40000E4B08331B6883430C4C08342360231D5E
:101E50001B680343241D23600DE0084B08331B68F7
:101E60000343064C08342360231D1B680343241DD1
:101E7000236000E000BF00BF10BD0000003C014037
:101E80000149086070470000143C014010B5002073
:101E900000F082F8012000F07FF8022000F07CF8CA
:101EA000032000F079F8042000F076F8052000F017
:101EB00073F8062000F070F8072000F06DF810BDF0
:101EC00010B50446094931F8140000F043F941F215
:101ED0000E1000F03FF9064951F82430054951F839
:101EE00024000022114600F095F810BD3C010020AE
:101EF0001C010020FC00002070B504460D46174967
:101F000031F8140000F026F941F20E1000F022F929
:101F1000134951F82430134951F824000022114686
:101F200000F078F8012D17D10F49085D0022022139
:101F300000F0BEF80D4A115D0D4A105D00F01CF96D
:101F40000C4951F8240001220021FFF73DFF094907
:101F500051F82400FFF794FF70BD0000D800002066
:101F6000C8000020B8000020F8000020F400002085
:101F7000F0000020E000002010B50446044A52F8AA
:101F80002410044A52F8240000F03CF810BD000070
:101F9000C8000020B800002010B50446104931F8F0
:101FA000140000F0D7F80F4951F824300E4951F8C9
:101FB00024000122114600F02DF80A4951F824307E
:101FC000094951F824000222002100F04AF805488E
:101FD00050F82400044951F82410886210BD000014
:101FE000A80000202800002008000020034951F824
:101FF0002010034A52F82020D162704728000020A8
:102000000800002002461069084008B1012070470E
:102010000020FCE7F0B504460D4616462168E2684C
:10202000002019E0012787401F409FB14FEA400C74
:10203000032707FA0CF7B943470005FA07F73943B6
:102040004FEA400C032707FA0CF7BA43470006FA99
:1020500007F73A43471CB8B21028E3D32160E26087
:10206000F0BDF0B50C461546012C03D146681E4361
:10207000466002E046689E434660826800210DE0AB
:1020800001268E401E403EB14F000326BE40B243A3
:102090004E0005FA06F632434E1CB1B21029EFD3BA
:1020A0008260F0BD00F040F901E000F07DF9FCE74E
:1020B000F0B50B46002100240025244E366806F4B6
:1020C000E066B6F5E06F02D100BF042526E01F4EA2
:1020D000366806F4E066B6F5C06F02D10124032528
:1020E0001CE01A4E366806F4E066B6F5A06F02D121
:1020F0000224022512E0154E366806F4E066B6F5B5
:10210000806F02D10324012508E0104E366806F4E2
:10211000E066B6F5407F01D104240025C4F1040631
:1021200003FA06F1C5F104070F26FE4016403143BD
:102130000901074E315400F01F070126BE40471128
:10214000BF0007F1E027C7F80061F0BD0CED00E02B
:1021500000E400E0074A02EB9011D1F8001800F00B
:102160001F0301229A401143024B03EB9012C2F865
:10217000001870470030024070B504460B46CD177A
:1021800001EB9575AD10A1EB8505AE000F25B540AF
:10219000E843CD1701EB9575AD10A1EB8505AD00BA
:1021A00004FA05F2CD1701EB9575AD1035B1012D8F
:1021B0000ED0022D18D0032D2ED121E0184B1B6814
:1021C0000340174D2B602B461B6813432B6024E004
:1021D000134B1B1D1B680340114D2D1D2B602B46FF
:1021E0001B6813432B6018E00D4B08331B6803403A
:1021F0000B4D08352B602B461B6813432B600CE0FE
:10220000074B0C331B680340054D0C352B602B46E8
:102210001B6813432B6000E000BF00BF70BD0000CF
:1022200008380140002000213A4A126842F00102B9
:10223000384B1A6000BF401C364A126802F0020197
:1022400011B9B0F5A06FF6D1324A126802F002025D
:102250000AB900BFFEE72F4A4032126842F08052AE
:102260002C4B40331A602C4A126842F440422A4BED
:102270001A60284A08321268264B08331A601A4638
:10228000126842F400421A601A46126842F4A052E0
:102290001A60224A1B1F1A601A1F126842F08072CD
:1022A0001B1F1A6000BF1B4A126802F00072002A4E
:1022B000F9D0194A126842F48032174B1A6000BFF5
:1022C000154A526802F48032002AF9D0124A126884
:1022D00042F40032104B1A6000BF0F4A526802F4F9
:1022E0000032002AF9D00B4A0832126822F00302A9
:1022F000084B08331A601A46126842F002021A604C
:1023000000BF044A0832126802F00802002AF8D01E
:10231000704700000038024000700040106400095F
:1023200010B5FFF77FFF10BD10B500F015F8FFF7EF
:10233000ADFDFFF72FFD00210846FFF7DDFD002171
:102340000120FFF7D9FD00210220FFF7D5FD002174
:102350000320FFF7D1FD10BD10B5124800684FF4FF
:102360007A71B0FBF1F4601EB0F1807F01D30120DF
:102370000FE0601E4FF0E02148610F214FF0FF3069
:10238000FFF71EFC00204FF0E02188610720086164
:10239000002008B100BFFEE70021481EFFF710FC37
:1023A00010BD00000400002010B50020FFF7E4FD80
:1023B00048B90A20FFF7D8FC0020FFF7DDFD10B96F
:1023C0000020FFF713FE10BD01464868C0F3080067
:1023D0007047C1F308024260704710B5024602EB35
:1023E0009110006801F01F040123A340184008B1B8
:1023F000012010BD0020FCE710B500EB91521268DF
:10240000C1F304440123A3409A4300EB91531A60A3
:1024100010BD10B5024602EB9110006801F01F04D8
:102420000123A340184008B1012010BD0020FCE7A3
:1024300010B500290AD00878002807D0054878444C
:10244000FEF734F9002801D0002010BD024878447E
:1024500010BD00007A0100007201000010B50029D3
:102460000AD00878002807D005487844FEF71EF9FE
:10247000002801D0002010BD0248784410BD0000A3
:102480005E020000560200004FF04070E1EE100ABC
:102490007047FEF7ADBAFEF737BD30313233343511
:1024A0003637383941424344454640305800303190
:1024B00032333435363738396162636465664030AB
:1024C0007800040000080000000000000002000185
:1024D0000000100000000000000000003031323326
:1024E0003435363738396162636465667870003038
:1024F0003132333435363738394142434445465812
:102500005000000002400000000000A00000000099
:1025100005400000000000C8000000000C40000062
:102520000000409C00000000194000000020BCBEDC
:102530000000000034400000BFC91B8E00000004F2
:10254000B5400000504BCFD06607E2CF010000003D
:102550006C4100003E8251AADFEEA734010000006A
:10256000D9420000DCB5A0E23A301F97FFFFFFFF21
:10257000B4450000FD25A0C8E9A3C14FFFFFFFFF40
:10258000FF3F00000000008000000000FF3F00004F
:102590000000008000000000E42600080000002089
:1025A0004C010000C40100086C2700084C01002009
:1025B0006421000020020008100100004300000018
:1025C000F8FFFFFF00404040404040404040414154
:1025D00041414140404040404040404040404040F8
:1025E0004040404040050202020202020202020292
:1025F000020202020220202020202020202020028F
:10260000020202020202909090909090101010101E
:1026100010101010101010101010101010101010BA
:10262000020202020202888888888888080808084E
:10263000080808080808080808080808080808081A
:102640000202020240000000000000000000000042
:10265000000000000000000000000000000000007A
:10266000000000000000000000000000000000006A
:10267000000000000000000000000000000000005A
:10268000000000000000000000000000000000004A
:10269000000000000000000000000000000000003A
:1026A000000000000000000000000000000000002A
:1026B000000000000000000000000000000000001A
:1026C00000000000000000001C00000043000000AB
:1026D000F8FFFFFF0C0000000E0000000F000000DC
:1026E0002E0000005114C2EB0BFC140240048A18A7
:1026F0000432404280320132023204321032201958
:102700001D280D04111110121013101410051120A2
:10271000291F392C69284A080C2907394029092919
:1027200004291C11196429041A0C045A08043910CC
:10273000111D0C030C0202117B0C05023A0602115A
:102740001A102099042967694F29935B040C02E948
:10275000181901E8090203040508090A1744F904D5
:0C276000A9ECA945199E119A8064590249
:0400000508000315D7
:00000001FF
